:100000000C947D0A0C94AE0A0C94AE0A0C94AE0AC1
:100010000C94AE0A0C94AE0A0C94AE0A0C94AE0A80
:100020000C94AE0A0C94AE0A0C94AE0A0C94AE0A70
:100030000C94AE0A0C94AE0A0C940A2E0C94AE0AE0
:100040000C94AE0A0C94AE0A0C94AE0A0C94AE0A50
:100050000C94AE0A0C9409300C94AE0A0C94C02D8A
:100060000C94AE0A0C94962D0C946C2D0C94AE0A44
:100070000C94AE0A0C9432300C94AE0A0C94AE0A76
:100080000C94AE0A0C94AE0A0C94AE0A0C94AE0A10
:100090000C94422D0C94182D0C94AE0A0C94AE0ABC
:1000A0000C94AE0A0C94AE0A0C94AE0A0C94AE0AF0
:1000B0000C94AE0A0C94AE0A0C94AE0A0C94AE0AE0
:1000C0000C94AE0A0C94AE0A0C94AE0A0C94EE2C6E
:1000D0000C94C42C0C94AE0A0C94AE0A0C94AE0A88
:1000E0000C94AE0A0C9435150C94061C0C947D0EE1
:1000F0000C94111D0C94A00E0C9467170C9474169C
:100100000C94D3200C9450230C947E0D0C946337E4
:100110000C94B71F0C9438180C94E40C0C946A0DD2
:100120000C94CE2A0C94780D0C949F1F0C94761F7F
:100130000C94700D0C94A80E0C940C1C0C94581676
:100140000C94001C0C94C4150C948C300C94681FF7
:100150000C94B01D0C94FB0E0C940F0F0C945822B1
:100160000C94B01F0C9439170C940C0C0C94892C23
:100170000C9423170C94DD0E0C94221D0C94741E09
:100180000C94561B0C947A160C948D160C94A12288
:100190000C94B11C0C944D250C944B0D0C94860DB5
:1001A0000C949B130C94CE1A0C945B210C94760E39
:1001B0000C9409240C94960E0C94E70E0C948C0E5F
:1001C0000C943E1F0C94510D0C94C9230C94F01BFD
:1001D0000C945D0D0C948F140C9480230C94740D6E
:1001E0000C942F1F0C949A0B0C9456160C94931687
:1001F0000C946F210C94D7190C9470220C94B52197
:100200000C943D0C0C947C210C94970C0C941D24A4
:100210000C94820E0C948B0D0C94462B0C94C60BF4
:100220000C947F180C940C1D0C94C40E0C94E722B3
:100230000C94CA250C94EB200C94BA130C94991DC1
:100240000C9481130C94820D0C94771D0C947527DB
:100250000C94F62B0C94B21B0C94BC220C94BA0E8A
:100260000C94A4160C9459180C948B160C947216BA
:100270000C94B00E0C941B0C0C94E7250C94601E8F
:100280000C94CE0E0C94F10E0C9488180C94490C1E
:100290000C94541F0C94550D0C94111E0C941D2C91
:1002A0000C94F6150C9434250C9463170C94B1221D
:1002B0000C94EB0D0C94050F0C941B1D0C94F72360
:1002C0000C9494220C94590D0C94A91F0C94E224C4
:1002D0000C94660D0C945C230C94471B0C94900DAD
:1002E0000C942F0C0C94CF1C0C94880B0C945F1660
:1002F0000C94600D0C948C0D0C94ED250C94842BB7
:100300000C943D150C94C722534C45575F4445410E
:100310004442414E44004D4F444255535F44554D75
:10032000505F534C4156455F4944004D4F44425540
:10033000535F44554D505F4556454E545F4D4153B4
:100340004B00454E41424C4553004D41585F534C84
:100350004156455F4552524F5253004A4F475F4402
:1003600055524154494F4E5F4D5300534C45575FD2
:1003700054494D454F555400434D445F53544154E7
:10038000555300434D445F41435449564500555031
:10039000444154455F434F554E540052454C4159DA
:1003A0005F53544154450052454C41595F464155B5
:1003B0004C54530053454E534F525F315F464155A5
:1003C0004C54530053454E534F525F305F46415596
:1003D0004C54530052454C41595F5354415455536A
:1003E0000053454E534F525F5354415455535F3160
:1003F0000053454E534F525F5354415455535F3051
:100400000054494C545F53454E534F525F31005492
:10041000494C545F53454E534F525F3000564F4C3A
:1004200054535F4D4F4E5F425553004144435F5616
:100430004F4C54535F4D4F4E5F42555300524553FE
:100440005441525400464C4147530049662064656C
:100450006C74612074696C74206C657373207468AB
:10046000616E206465616462616E64207468656EAB
:100470002073746F702E00466F72206D6173746507
:10048000722C206F6E6C792064756D70204D4F4416
:10049000425553206576656E74732066726F6D20C9
:1004A0007468697320736C6176652049442E00443A
:1004B000756D70204D4F44425553206576656E74BE
:1004C00073206D61736B2C207265666572204D4FD1
:1004D000444255535F43425F4556545F7878782EC7
:1004E00000456E61626C6520666C6167732E004D1D
:1004F0006178206E756D626572206F6620636F6E25
:10050000736563757469766520736C6176652065C3
:1005100072726F7273206265666F726520666C61BD
:100520006767696E672E004A6F6720647572617431
:10053000696F6E20666F722073696E676C652061EB
:1005400078697320696E206D732E0054696D656F34
:10055000757420666F72206178697320736C65779B
:1005600020696E207365636F6E64732E005374612F
:100570007475732066726F6D2070726576696F7521
:100580007320636F6D6D616E642E004375727265CA
:100590006E742072756E6E696E6720636F6D6D612B
:1005A0006E642E00496E6372656D656E74656420BD
:1005B0006F6E206561636820757064617465206387
:1005C00079636C652E0056616C756520777269746D
:1005D00074656E20746F2072656C6179732E0043B0
:1005E0006F756E7473206E756D626572206F662014
:1005F00052656C6179206661756C74732E004E755E
:100600006D626572206F662053656E736F72203164
:10061000206661756C74732E004E756D6265722074
:100620006F662053656E736F722030206661756C43
:1006300074732E005374617475732066726F6D202D
:1006400052656C6179204D6F64756C652E00537432
:10065000617475732066726F6D2053656E736F726F
:10066000204D6F64756C6520312E00537461747574
:10067000732066726F6D2053656E736F72204D6FBD
:1006800064756C6520302E0054696C7420616E674F
:100690006C652073656E736F722031207363616CBB
:1006A000656420313030302F39304465672E005476
:1006B000696C7420616E676C652073656E736F7210
:1006C0002030207363616C656420313030302F3905
:1006D000304465672E0042757320766F6C7473200A
:1006E0002F6D562E0052617720414443204275738E
:1006F00020766F6C74732E004D4355535220696EF3
:10070000206C6F7720627974652C2077646F672086
:10071000696E206869676820627974652E00566189
:1007200072696F757320666C6167732E004D6F740C
:10073000696F6E2052756E204F6E00506F73697432
:10074000696F6E204572726F72004D6F74696F6EC3
:100750002054696D656F757400466F6F74204E6F1D
:10076000204D6F74696F6E0048656164204E6F2084
:100770004D6F74696F6E00466F6F742053656E73B2
:100780006F722042616400486561642053656E7336
:100790006F7220426164004D6F76652041626F7216
:1007A000746564004D6F7665204C696D6974005303
:1007B000617665204661696C004D6F7665205469ED
:1007C0006D656F75740050726573657420496E763F
:1007D000616C69640052656C6179204661696C00E6
:1007E000556E6B6E6F776E0050656E64696E670054
:1007F0004E6F74206177616B65004F4B00320001D2
:10080000050000FFFF00050001050000FFFF0014C8
:100810000001140000FFFF00020000000001696EEB
:10082000646578206F7574206F662072616E6765ED
:1008300000696E70757420627566666572206F76E9
:100840006572666C6F7700756E6B6E6F776E206386
:100850006F6D6D616E6400737461636B206F76659C
:1008600072666C6F7700737461636B20756E64657C
:1008700072666C6F77006E756D626572206F76655B
:1008800072666C6F770044454255475F434D4400A4
:1008900044454255475F52454C41590044454255F5
:1008A000475F534C45575F415849530052454D4FA0
:1008B00054455F434D440057414B45555000534507
:1008C0004E534F525F5550444154450049525F5278
:1008D0004543005550444154455F4D454E550053E6
:1008E000575F544F5543485F5245540053575F5428
:1008F0004F5543485F4D454E550053575F544F5534
:1009000043485F52494748540053575F544F55433B
:10091000485F4C45465400434F4D4D414E445F4463
:100920004F4E4500434F4D4D414E445F535441524D
:10093000540044454255470044454255475F515590
:100940004555455F46554C4C0044454255475F541C
:10095000494D45525F53544F500044454255475FFF
:1009600054494D45525F41524D0054494D45520046
:10097000534D5F53454C4600534D5F455849540015
:10098000534D5F454E5452590044454255475F53BD
:100990004D5F53544154455F4348414E4745004ED7
:1009A000494C0045043D042B041D040F040104F1CF
:1009B00003E103D403C403B403A7039B038E03839F
:1009C0000378036B035B034A0342032B03160308FC
:1009D000031E07F806E506D606AF0688066B064E28
:1009E0000634061906FE05DF05C605A4058B056D50
:1009F000054B052705EF04E104AF0477044B040A17
:100A0000466C6167733A0A2044435F4C4F573A2063
:100A100030202842757320766F6C7473206C6F776A
:100A20002E290A2053454E534F525F4641554C5490
:100A30003A203120284661756C74207374617465A6
:100A4000206F6620616C6C205F656E61626C65640E
:100A50005F2053656E736F72206D6F64756C657384
:100A60002E290A2052454C41595F4641554C543A73
:100A7000203220284661756C74207374617465207F
:100A8000666F722052656C6179206D6F64756C655C
:100A9000205F69665F20656E61626C65642E290A5D
:100AA0002053575F544F5543485F4C4546543A20B6
:100AB000342028546F756368207377204C45465462
:100AC0002E290A2053575F544F5543485F524947D8
:100AD00048543A20352028546F7563682073772076
:100AE00052494748542E290A2053575F544F5543C3
:100AF000485F4D454E553A20362028546F7563683F
:100B0000207377204D454E552E290A2053575F54A8
:100B10004F5543485F5245543A20372028546F754B
:100B20006368207377205245542E290A2053454E7E
:100B3000534F525F44554D505F454E41424C453AEC
:100B40002038202853656E642053454E534F525F22
:100B5000555044415445206576656E74732E290ABC
:100B6000204157414B453A20392028436F6E74721B
:100B70006F6C6C6572206177616B65290A20414258
:100B80004F52545F5245513A203130202841626F14
:100B900072742072756E6E696E6720636F6D6D6121
:100BA0006E642E290A20454550524F4D5F524541F3
:100BB000445F4241445F303A20313320284545505C
:100BC000524F4D2062616E6B203020636F727275E0
:100BD00070742E290A20454550524F4D5F524541B1
:100BE000445F4241445F313A20313420284545502A
:100BF000524F4D2062616E6B203120636F727275AF
:100C000070742E290A205741544348444F475F527D
:100C10004553544152543A203135202857686F6F5C
:100C200070732E290A456E61626C65733A0A20441E
:100C3000554D505F4D4F444255535F4556454E54B8
:100C4000533A2030202844756D70204D4F44425552
:100C500053206576656E742076616C75652E290A61
:100C60002044554D505F524547533A203120285279
:100C70006567732076616C7565732064756D70208F
:100C8000746F20636F6E736F6C652E290A20445554
:100C90004D505F524547535F464153543A203220EE
:100CA0002844756D7020617420352F732072617433
:100CB000686572207468616E20312F732E290A20B6
:100CC00053454E534F525F44495341424C455F3068
:100CD0003A2034202844697361626C652053656E44
:100CE000736F7220302E290A2053454E534F525FA6
:100CF00044495341424C455F313A203520284469EC
:100D00007361626C652053656E736F7220312E299A
:100D10000A2053454E534F525F44495341424C457C
:100D20005F323A2036202844697361626C65205333
:100D3000656E736F7220322E290A2053454E534F31
:100D4000525F44495341424C455F333A2037202893
:100D500044697361626C652053656E736F722033F2
:100D60002E290A20544F5543485F44495341424C71
:100D7000453A2038202844697361626C6520746F9D
:100D800075636820627574746F6E732E290A20541F
:100D9000524143455F464F524D41545F42494E4197
:100DA00052593A203133202844756D702074726195
:100DB000636520696E2062696E61727920666F7268
:100DC0006D61742E290A2054524143455F464F52AB
:100DD0004D41545F434F4E434953453A20313420EF
:100DE0002844756D7020747261636520696E20639C
:100DF0006F6E63697365207465787420666F726DB9
:100E000061742E290A2044495341424C455F424CAB
:100E1000494E4B595F4C45443A20313520284469AE
:100E20007361626C652073657474696E6720426CCF
:100E3000696E6B79204C65642066726F6D20666107
:100E4000756C74207374617465732E29000A2564AF
:100E50003A2025533A202563000A0A41626F7274D2
:100E60003A0000010102026E040A050B060C070D90
:100E7000080E090F0A100B110C6F0D700E710F7216
:100E8000106411651266136714C815C916CA17CB0A
:100E9000556E6B6E6F776E20436F6D6D616E640083
:100EA000476F746F20506F73203400476F746F204A
:100EB000506F73203300476F746F20506F73203270
:100EC00000476F746F20506F732031005361766557
:100ED00020506F732034005361766520506F73206B
:100EE00033005361766520506F7320320053617672
:100EF0006520506F73203100466F6F74204C696D10
:100F0000697420557000466F6F74204C696D697468
:100F1000204C6F770048656164204C696D697420CE
:100F200055700048656164204C696D6974204C6F90
:100F30007700436C656172204C696D69747300546D
:100F4000696C7420446F776E0042656420446F774B
:100F50006E004C656720446F776E004865616420C1
:100F6000446F776E0054696C74205570004265645C
:100F7000205570004C6567205570004865616420FD
:100F800055700057616B6575700053746F70002564
:100F900073002553004A0710000093168D168B1618
:100FA0000000003B071600007A1674167216000047
:100FB000002D071100005F16581656160000004F4E
:100FC0004B004641494C0048252B2D3664205425C2
:100FD0002B2D3664005220255300556E6B6E6F77B3
:100FE0006E205374617475730052756E6E696E670E
:100FF0000000436C65617220506F73204C696D690D
:1010000074730056322E30206275696C6420373953
:1010100036002020545341204D424320323032329A
:10102000001D2CF62B842B462BCE2AC41500000A5B
:101030003E000A00204F5646004D3A0000001808B6
:101040000F080608FD0702050C1122050C050C000F
:101050000000000001010002050C1122050C050C26
:1010600000101020200101000000C1C081C140011A
:1010700001C3C003800241C201C6C006800741C748
:101080000005C1C581C4400401CCC00C800D41CD18
:10109000000FC1CF81CE400E000AC1CA81CB400BE8
:1010A00001C9C009800841C801D8C018801941D9B8
:1010B000001BC1DB81DA401A001EC1DE81DF401F48
:1010C00001DDC01D801C41DC0014C1D481D5401558
:1010D00001D7C017801641D601D2C012801341D368
:1010E0000011C1D181D0401001F0C030803141F1F8
:1010F0000033C1F381F240320036C1F681F7403748
:1011000001F5C035803441F4003CC1FC81FD403D17
:1011100001FFC03F803E41FE01FAC03A803B41FBE7
:101120000039C1F981F840380028C1E881E9402937
:1011300001EBC02B802A41EA01EEC02E802F41EF47
:10114000002DC1ED81EC402C01E4C024802541E557
:101150000027C1E781E640260022C1E281E3402367
:1011600001E1C021802041E001A0C060806141A177
:101170000063C1A381A240620066C1A681A7406747
:1011800001A5C065806441A4006CC1AC81AD406D17
:1011900001AFC06F806E41AE01AAC06A806B41ABE7
:1011A0000069C1A981A840680078C1B881B94079B7
:1011B00001BBC07B807A41BA01BEC07E807F41BF47
:1011C000007DC1BD81BC407C01B4C074807541B557
:1011D0000077C1B781B640760072C1B281B3407367
:1011E00001B1C071807041B00050C19081914051F7
:1011F0000193C053805241920196C0568057419747
:101200000055C19581944054019CC05C805D419D16
:10121000005FC19F819E405E005AC19A819B405BE6
:101220000199C059805841980188C0488049418936
:10123000004BC18B818A404A004EC18E818F404F46
:10124000018DC04D804C418C0044C1848185404556
:101250000187C047804641860182C0428043418366
:101260000041C18181804040286E756C6C2900046A
:10127000040202010102020202020202020202024E
:101280000202040402021E00F40103000001000037
:1012900000001E0000002100240027002A002D006D
:1012A0003000330001010000040107010A010000C1
:1012B0002200250028002B002E00310034000201FE
:1012C0000000050108010B0100002000230026009A
:1012D00029002C002F00320000010000030106014C
:1012E00009010505050507050808080802020202AC
:1012F0000A0A0808040404040101010101010101B2
:101300000303030303030303040707070C0C0C0C7C
:101310000C0C0C0C02020202060606060606060665
:101320000B0B0B0B0B0B0B0B0102102020080810F2
:101330002040102040800201020108040201010245
:10134000040810204080804020100804020180041E
:101350000201804020100804020108040201010279
:1013600004081020408001020408102040805453DB
:101370004120536172676F6F642042656420436F40
:101380006E74726F6C6C65722056322E3020283766
:10139000393629203230323330353135543132311B
:1013A000343533000A454550524F4D2073746174F3
:1013B00075733A20000A5265737461727420636F0A
:1013C00064653A003F3F3F00203A20004572726F4B
:1013D000723A2000202D3E2000400305000000004E
:1013E00000000022009B1310000C21009B13200022
:1013F0000D23009B1340000E24009B1380000F0060
:101400000000010102020304050608090B0D0E107D
:101410001315171A1C1F2225282B2F32363A3E424D
:10142000464A4F53585D62676C71777C82888E9410
:101430009AA1A7AEB4BBC2C9D1D8E0E7EFF7FF01CC
:10144000000A523A00060004010002009F098909BF
:101450008009780970096A095A0949093809320965
:10146000240917090909FA08EC08DF08D308CC0891
:10147000BE08B708AC089C0890088608453A2025A5
:101480006C753A2025532025752825752C2575293E
:101490000A00256C752025752025752025750A0004
:1014A00025750000000A0B02090C0D0E0807030445
:1014B000010000000000000000000000000000002B
:1014C000000000000000000000000000000000120A
:1014D00011100000000000000000000000000000EB
:1014E0000000000000000000000500290000002BA3
:1014F000001F058113008C30633711241FBECFEF0E
:10150000D1E2DEBFCDBF00E00CBF27E0ACE2B3E02C
:1015100001C01D92AB38B207E1F713E0A0E0B2E0E2
:10152000E6EEF3E700E00BBF02C007900D92AC328D
:10153000B107D9F71AE0CCE7DAE000E006C021975E
:101540000109802FFE010E949C38CB37D10780E033
:101550000807A9F70E943E310C94E1390C94000071
:101560000F931F93CF93DF93EC019A01AB01E889AE
:10157000F98982E08083EC85FD8510820E851F85C8
:1015800060E079E08DE390E00E947A3821503109E3
:10159000410951095695479537952795F8012083BC
:1015A000188EEC89FD8986E08083EA89FB89808139
:1015B00080618083EA89FB89808188608083EA89F1
:1015C000FB89808180688083EA89FB8980818F7DA7
:1015D0008083DF91CF911F910F910895E9EEF4E19F
:1015E00025913491832F820F8E5E2A5B280FEBEEBC
:1015F000F4E165917491E1EFF4E145915491FA01C0
:10160000640F751FE617F70729F09081890F280FDF
:101610003196F8CF922F0895A0917705B0E07091A0
:101620007305609174052091750530917605809160
:10163000710590917205FC01459154914115510538
:10164000D1F4909372058093710510927B051092EE
:101650007A05309376052093750570937305609332
:101660007405E0917805F09179051995109272054D
:101670001092710508954F3F5407E1F430937605B9
:1016800020937505709373056093740580916F05C1
:10169000909170059093720580937105FC012591DE
:1016A000349130937B0520937A05E0917805F09191
:1016B000790519944E3FEFEF5E0759F48A0F9B1F8F
:1016C0002115310509F4B7CF21503109872F962F05
:1016D000B2CF57FF0CC09A013F772150310911F466
:1016E00021E030E08A0F9B1F782F692FA4CF9093C1
:1016F00072058093710550937B0540937A05309372
:101700007605209375057093730560937405CDCFAE
:10171000DB01ED91FC91119712962D913C9113975D
:10172000E217F30730F49F012F5F3F4F2D933C9357
:10173000808308950895DC01ED91FC910190F08182
:10174000E02D1994EF92FF920F931F93CF93DF93A5
:101750008C017B01D0E0C0E0F701EC0FFD1F64912C
:10176000662361F0D801ED91FC910190F081E02DAC
:10177000C8011995892B11F02196EECFCE01DF918A
:10178000CF911F910F91FF90EF900895AF92BF926C
:10179000CF92DF92EF92FF920F931F93CF93DF933D
:1017A0006C017B018B01040F151FEB015E01AE186C
:1017B000BF08C017D10759F06991D601ED91FC918E
:1017C0000190F081E02DC6011995892B79F7C501AB
:1017D000DF91CF911F910F91FF90EF90DF90CF900D
:1017E000BF90AF900895FC01A089B1898C91A68922
:1017F000B78982FD0FC09C91818D8F5F8F73228D81
:10180000821749F0A18DAE0FBF2FB11D5D969C933D
:10181000818F08958C910895FC01538D448D252F5F
:1018200030E0842F90E0821B930B541710F0CF967A
:10183000089501970895FC01918D828D981761F0AC
:10184000A28DAE0FBF2FB11D5D968C91928D9F5FC3
:101850009F73928F90E008958FEF9FEF0895FC01A2
:10186000918D828D981731F0828DE80FF11D858D55
:1018700090E008958FEF9FEF0895FC01918D228DE8
:10188000892F90E0805C9F4F821B91098F7399276D
:1018900008958DE795E00E943D0C1816190624F472
:1018A0008DE795E00C941B0C8FEF9FEF08958DE76B
:1018B00095E00E943D0C21E0892B09F420E0822F65
:1018C00008958AE196E00E943D0C21E0892B09F4FD
:1018D00020E0822F089587EB96E00E943D0C21E0E6
:1018E000892B09F420E0822F0895FC01A48DA80F14
:1018F000B92FB11DA35ABF4F2C91848D90E0019652
:101900008F739927848FA689B7892C93A089B18971
:101910008C91837080648C93938D848D981306C012
:101920000288F389E02D80818F7D80830895EF9276
:10193000FF920F931F93CF93DF93EC0181E0888F89
:101940009B8D8C8D98131AC0E889F989808185FF59
:1019500015C09FB7F894EE89FF896083E889F989FB
:1019600080818370806480839FBF81E090E0DF91FD
:10197000CF911F910F91FF90EF900895F62E0B8D50
:1019800010E00F5F1F4F0F731127E02E8C8D8E110B
:101990000CC00FB607FCFACFE889F989808185FF72
:1019A000F5CFCE010E94750CF1CFEB8DEC0FFD2F22
:1019B000F11DE35AFF4FF0829FB7F8940B8FEA892D
:1019C000FB8980818062CFCFCF93DF93EC01888D3C
:1019D0008823B9F0AA89BB89E889F9898C9185FDAA
:1019E00003C0808186FD0DC00FB607FCF7CF8C9138
:1019F00085FFF2CF808185FFEDCFCE010E94750C6F
:101A0000E9CFDF91CF91089580E090E0892B29F014
:101A10000E946B0C81110E94000080E090E0892BF5
:101A200029F00E94610C81110E94000080E090E08A
:101A3000892B29F00E94570C81110E94000080E040
:101A400090E0892B49F080E090E0892B29F00E94FA
:101A5000000081110C94000008958150823108F03B
:101A60005AC0E82FF0E08827E75CF24F8F4F0C94C4
:101A70009C38590D5D0D4B0D510D550D8B0D600DA5
:101A8000660D6A0D700D740D780D7E0D820D8B0D37
:101A9000860D8C0D900D809180008F778093800053
:101AA0000895809180008F7DF9CF80918000877F9D
:101AB000F5CF84B58F7784BD089584B58F7DFBCF36
:101AC0008091B0008F778093B00008958091B0002E
:101AD0008F7DF9CF809190008F778093900008954B
:101AE000809190008F7DF9CF80919000877FF5CF16
:101AF0008091A0008F778093A00008958091A0002E
:101B00008F7DF9CF8091A000877FF5CF8091200154
:101B10008F77809320010895809120018F7DF9CFE8
:101B200080912001877FF5CFCF93DF93282F30E07E
:101B3000F901ED55FB4E8491F901E85DFC4ED4911D
:101B4000F901EE51FD4EC491CC23A1F081110E9408
:101B50002D0DEC2FF0E0EE0FFF1FE853FD4EA59189
:101B6000B491EC91ED2381E090E009F480E0DF9105
:101B7000CF91089580E090E0FACF1F93CF93DF9349
:101B8000282F30E0F901ED55FB4E8491F901E85D15
:101B9000FC4ED491F901EE51FD4EC491CC23A9F035
:101BA000162F81110E942D0DEC2FF0E0EE0FFF1F7C
:101BB000E255FD4EA591B4918FB7F894EC911111B7
:101BC00008C0D095DE23DC938FBFDF91CF911F91AA
:101BD0000895DE2BF8CF0F931F93CF938C01C62F60
:101BE00061E080E20E94BD0D4C2F50E0B8018DE70E
:101BF00095E00E94C60B8DE795E00E94E40C60E042
:101C000080E2CF911F910F910C94BD0DCF93DF9384
:101C100090E0FC01E85DFC4E24918E519D4EFC014C
:101C200084918823C9F090E0880F991FFC01EC563D
:101C3000FD4EA591B491FC01E255FD4EC591D491A4
:101C400061110DC09FB7F8948C91209582238C93DD
:101C50008881282328839FBFDF91CF910895623028
:101C600051F49FB7F8943C91822F809583238C93F5
:101C7000E8812E2BEFCF8FB7F894EC912E2B2C937D
:101C80008FBFEACFCF93DF93EC0161E084E00E9445
:101C9000060E209731F460E084E0DF91CF910C9440
:101CA000BD0DCF3FD10511F461E0F6CFE7EAF4E1D5
:101CB000E491E150E23108F0B2C0F0E08827EC593D
:101CC000F14F8F4F0C949C38760E7D0E820E8C0E49
:101CD000960E0F0FA00EA80EB00EBA0EC40ECE0EAA
:101CE000DD0EE70E0F0FF10EFB0E050F84B58068B9
:101CF00084BDC7BDDF91CF91089584B5806284BD56
:101D0000C8BDF8CF80918000806880938000D09318
:101D10008900C0938800EECF80918000806280931C
:101D20008000D0938B00C0938A00E4CF8091800024
:101D3000886080938000D0938D00C0938C00DACFB0
:101D40008091B00080688093B000C093B300D2CF80
:101D50008091B00080628093B000C093B400CACF7D
:101D600080919000806880939000D0939900C093F8
:101D70009800C0CF80919000806280939000D093B3
:101D80009B00C0939A00B6CF8091900088608093AA
:101D90009000D0939D00C0939C00ACCF8091A00098
:101DA00080688093A0008091A0008F7B8093A0002A
:101DB000D093A900C093A8009DCF8091A00080621D
:101DC0008093A000D093AB00C093AA0093CF8091E2
:101DD000A00088608093A000D093AD00C093AC00B9
:101DE00089CF80912001806880932001D0932901C0
:101DF000C09328017FCF80912001806280932001D1
:101E0000D0932B01C0932A0175CF80912001886067
:101E100080932001D0932D01C0932C016BCFC0384B
:101E2000D1050CF041CF37CF3FB7F89480918503AF
:101E300090918603A0918703B091880326B5A89B53
:101E400005C02F3F19F00196A11DB11D3FBFBA2F4C
:101E5000A92F982F8827BC01CD01620F711D811D0C
:101E6000911D42E0660F771F881F991F4A95D1F791
:101E700008952FB7F8946091810370918203809147
:101E80008303909184032FBF0895CF93DF93482F4E
:101E900050E0440F551F30E020E0DA01AA59BD4E52
:101EA0008617E9F070E090E0803138F0FD01E20F34
:101EB000F31FC591D4917C2F9D2FEFB7E0937C0445
:101EC000F894F901E40FF51FE150FB4F7083918303
:101ED00090917C049FBF8F5F2E5F3F4FE1CFDF91DA
:101EE000CF910895E82FF0E0EE0FFF1FE150FB4F78
:101EF00020813181442361F0622B732B71836083D5
:101F000081E0408151814217530709F480E0089530
:101F10006095709562237323F1CF462FBC0180E05A
:101F20000C94720F2F923F924F925F926F927F921A
:101F30008F929F92AF92BF92CF92DF92EF92FF92D9
:101F40000F931F93CF93DF93CDB7DEB762970FB692
:101F5000F894DEBF0FBECDBF4C015B013A017901A1
:101F600010E0F3018491882309F42AC110FF18C1FD
:101F7000833509F46CC0D0F4803309F45CC070F48C
:101F80008B3209F452C014608D3209F450C085328E
:101F900059F410E0B501F401199549C08A3308F4E9
:101FA0004DC08C3409F451C010E041C08C3609F4A6
:101FB0004CC0C8F4833609F44CC0843609F456C0CA
:101FC000883591F7186020E12F87670111FFA8C0BD
:101FD00084E0C80ED11CF70180819181A281B38178
:101FE000BC01CD0159C0853781F3883709F495C00C
:101FF0008337D1F6670132E0C30ED11CF701E080D0
:10200000F180E114F10429F4106888E6E82E82E1F9
:10201000F82E002309F4A2C0F70117FF96C084919F
:10202000882309F494C03196F8CFFBE2FD878FEF47
:10203000681A780A96CF002309F4BDC080532AE0BD
:10204000029F800D1124082FF2CF1260F0CF10688C
:10205000D1CF6701F2E0CF0ED11CF70180818983D7
:102060001A829E012F5F3F4F7901D3CF670111FF85
:1020700049C034E0C30ED11CF701608171818281B7
:10208000938197FF09C090958095709561957F4FDA
:102090008F4F9F4FFDE2FD871C869E01245F3F4FBF
:1020A000398B288B3F85232E312C512C412CE12F4D
:1020B000E870EA8BA20191010E947A3880E36A30CD
:1020C00028F0FA8987E3F11101C087E5E888F988EB
:1020D000860FF70182937F01CA01B901611571056D
:1020E0008105910531F5FD85FF2309F492CF002389
:1020F00019F12E85203301F5B5018F2FF4011995C3
:10210000015087CFF2E0CF0ED11CF70160817181C1
:10211000072E000C880B990BB4CF30E13F8755CFC9
:10212000F2E0CF0ED11CF70180819181B0E0A0E0F8
:1021300057CFF98AE88ABECFF70131972D852083E2
:102140008889998902977C0164CF808169CFEE19D3
:10215000FF090E171F0661F05CF00E1B12FD0AC08E
:10216000002341F0B5018E85F40119950150F8CF97
:1021700000E0F4CFF70117FF0AC08491FFEFEF1AD8
:10218000FF0A882331F0B501F4011995F3CF80815E
:10219000F5CF015098F0B5018E85F4011995F9CF6E
:1021A000853209F0F7CE11E01D8620E22E873AE055
:1021B0003F8700E03CCFF0E3FE8739CF7601F4CED5
:1021C00062960FB6F894DEBF0FBECDBFDF91CF9100
:1021D0001F910F91FF90EF90DF90CF90BF90AF9045
:1021E0009F908F907F906F905F904F903F902F9037
:1021F0000895DC018FEF9FEF615070F0ED91492F52
:102200005527E827F0E0EE0FFF1FE859FF4E8591B4
:10221000949184279527F0CF0895E0919403F0914D
:102220009503309709F019940895FC01A489B589A4
:1022300044968A1731F0CD010196958B848B6C936F
:10224000089581E0868B0895CF93DF93C091CA03F0
:10225000D091CB030E94390F2091960330919703C0
:102260002115310599F0621B730BC617D70770F45F
:10227000109297031092960360E080E00E940D1187
:10228000E0919203F091930389E01995C091C803FE
:10229000D091C9030E94140F2091C6033091C70347
:1022A0002115310509F451C0621B730BC617D707FE
:1022B00008F04BC01092C7031092C60360E081E0A3
:1022C0000E940D1161E082E00E940D116091C30334
:1022D0007091C4036F5A7340662399F19091C503BE
:1022E000911125C0653018F18091AF038150C3E092
:1022F000873F30F462508FEA93E00E94F910C0E00B
:102300008091960390919703892B09F444C0109211
:1023100097031092960360E080E00E940D11E09117
:102320009203F0919303CC2321F08C2F09C0C2E0DB
:10233000E7CF9091AF0380919803981711F18AE04D
:10234000199560E082E00E940D11E0918D03F091FB
:102350008E031995EC0197FD35C00E94140F61158D
:10236000710549F17093C7036093C60361E081E092
:102370000E940D116C2F8FEA93E0DF91CF910C94A6
:1023800015119091B00380919903981711F08BE08B
:10239000D7CF88E0D5CFE0919203F0919303C1119C
:1023A000C4CF9091AF0380918F03981711F085E00F
:1023B000C7CF84E0C5CF8FEF9FEF9093C703809383
:1023C000C603D4CFDF91CF910895982F977021E065
:1023D00030E001C0220F9A95EAF78695869586959A
:1023E000E82FF0E0EB5BFA4F8081662319F0282B91
:1023F0002083089520952823FBCF0F931F93CF931D
:10240000DF93683108F049C0E62FE695E695E6953A
:10241000F0E0EB5BFA4F462F477021E030E0D90146
:1024200002C0AA0FBB1F4A95E2F720812A23A9F117
:10243000D92F182F072FC62F0E94390F2FB720939F
:102440007C04F8943091FE042091FD04321B30315D
:1024500028F02091FD042F5F2093FD043091FE04AD
:102460002091FD04321B3031A8F4E091FE0421E0FC
:102470002E0F2093FE04EF70B8E0EB9FF0011124C3
:10248000E358FB4F6083718382839383C483058306
:102490001683D78380917C048FBFDF91CF911F91EA
:1024A0000F9108958F929F92AF92BF92CF92DF9239
:1024B000EF92FF920F931F93CF93DF93EB012530A1
:1024C00009F050C0C32ED42EE52EFF2463E06C1516
:1024D00008F44EC064E0C69EF0011124E85BFB4F97
:1024E000628173816417750709F042C0BA01A901BE
:1024F0008C01CE01F8011995F82E87FD39C043E013
:1025000050E060E070E0CE01F8011995698170E05B
:1025100090E080E0982F872F762F662761608F2CC0
:102520000F2C000C9908AA08BB0854019924882490
:10253000682979298A299B290E94FD11F88242E0A5
:1025400050E060E070E0CE01F801DF91CF911F9183
:102550000F91FF90EF90DF90CF90BF90AF909F9042
:102560008F901994243011F66981631709F4BECF56
:10257000DF91CF911F910F91FF90EF90DF90CF905F
:10258000BF90AF909F908F900895CF92DF92EF927F
:10259000FF92CF936B017C01C42F611108C0C1E091
:1025A0008C2FCF91FF90EF90DF90CF9008950E94F5
:1025B000FD118FB780937C04F89480917B049091F7
:1025C0007A04891BCC2319F18830B0F5E0917A04A4
:1025D000E150E0937A04E77084E0E89FF001112471
:1025E000E65AFB4FC082D182E282F38280917C0462
:1025F0008FBFC111D4CFFE2CED2CDC2CCC24C70115
:10260000B6018827992768600E94FD11C9CF8830DC
:1026100068F7E0917B0481E08E0F80937B04E77084
:1026200084E0E89FF0011124E65AFB4FC082D1827A
:10263000E282F382C1E0DACFC0E0D8CFFC01618151
:1026400070E090E080E0982F872F762F66276460F7
:1026500041E00C94C51240E00C94C5120F931F93F7
:10266000062F10E030E020E0322F212F102F00271E
:10267000082B70E060E0CA0177276627602B712B7A
:10268000822B932B1F910F910C942B130F931F935D
:10269000CF93C82F8B0190E080E0CB01772766278E
:1026A00066607C2B0E94FD11EC2FF0E080917E0390
:1026B00090917F030196F1F390937F0380937E03C3
:1026C000EE0FFF1FEE0FFF1FE85BFB4F938382832C
:1026D00011830083CF911F910F9108958FEF9FE792
:1026E0009093400580933F0590933E0580933D0570
:1026F0009093440580934305909342058093410550
:10270000089567E180E10E94450FEFEFF4E08FEF5D
:102710009FE797A786A791AB80AB93AB82AB95ABB6
:1027200084AB97AB86AB91AF80AF93AF82AF95AFE1
:1027300084AF0C946E1382E008952FE3829FC00152
:10274000112481589F4F2FEF30E0B9010E94523879
:1027500060933B0480913C04861758F460933C04DA
:1027600061507C4EFB016491C901861B91090C9458
:10277000420E089580916103882309F481C08091FD
:1027800060038230E1F0823309F45FC0809160031E
:102790008093270480915C0390915D0390932904BA
:1027A0008093280480915E0390915F0390932B04A3
:1027B00080932A0480915B0380932C0455C0809100
:1027C0005E0390915F0320915E0330915F03892F38
:1027D0009927209530952817190611F580915C03EB
:1027E00090915D0320915C0330915D03892F9927BF
:1027F000209530952817190649F480915C03909133
:102800005D03992790935D0380935C0380915E0341
:1028100090915F03992790935F0380935E03B6CFF7
:1028200080915C0390915D038E3E974851F48BE05C
:102830008093600380915E0390915F03892F9927B5
:10284000E1CF88E380936003A1CF80915E039091F4
:102850005F0320915E0330915F03892F992728172A
:102860001906A1F21092600310925F0310925E03AA
:1028700010925D0310925C0310925B03109261034F
:1028800081E080932D0408953091470320915203F5
:10289000231710F1909148032917F0F44091530346
:1028A0005091540390E060914D03662391F0E22F24
:1028B000E31BFF0B02C0880F991FEA95E2F7842BF8
:1028C000952B90935403809353032F5F20935203CF
:1028D0000895440F551FF3CF309149032317A8F3F0
:1028E00090914A03291788F790E040915503509141
:1028F000560360914D03662379F0E22FE31BFF0B33
:1029000002C0880F991FEA95E2F7842B952B9093CC
:10291000560380935503D9CF440F551FF6CF81300E
:1029200071F018F0823099F00895809108016623C3
:1029300021F081608093080108958E7FFBCF809104
:102940000801662311F08260F5CF8D7FF3CF80916F
:102950000801662311F08460EDCF8B7FEBCF80916F
:10296000250584FD0AC090916203209123053091D2
:1029700024059217130609F070F485FD0EC020910E
:10298000630380912305909124052817190629F0E7
:1029900020F081E0089580E008958FEF0895CF93AF
:1029A000DF939AEF980FE92FF0E0DF01AE59BC4FAB
:1029B0006436710568F01C92E82FF0E0EE0FFF1FFF
:1029C000E150FB4F7183608381E0DF91CF910895E7
:1029D000883059F520911505309116052F5F3F4F2E
:1029E00030931605209315059C91943610F49F5F43
:1029F0009C939C91209123053091240592171306F6
:102A000019F310F3A82FB0E0AA0FBB1FA150BB4FC2
:102A10006D937C938830C1F2EE0FFF1FE95FFA4F90
:102A20008FEF9FE791838083CFCF20E130E002C01A
:102A3000220F331F9A95E2F7409125055091260504
:102A400024233523232B81F6EF01CC0FDD1FCF5E2E
:102A5000DA4F288139812F5F3F4F39832883C4CFD4
:102A6000682F87EB96E00C94970C0C943015882314
:102A700011F0479A089547980895009731F0FC01A6
:102A80003296E49181E0E11101C080E00C943715A9
:102A9000853008F080E080933C03E82FF0E0EE0FF3
:102AA000FF1FE45CFF4E85919491009739F41092DA
:102AB00072051092710580E00C9437152091710514
:102AC00030917205232B39F020916F0530917005FC
:102AD00082179307E1F090937405809373059093A8
:102AE000700580936F059093720580937105109225
:102AF00076051092750583E0809377058DE395E167
:102B0000909379058093780581E080937C05089502
:102B1000809590918B07892380938B07811104C046
:102B2000A89583E080938B07089580913D04909150
:102B30003E04FC01339625913491FC013196259198
:102B400034913093400420933F04232B29F41092B6
:102B50003E0410923D040895FC01849120917B0075
:102B600030E0277F982F9072292B90E0232B09F0DB
:102B700098E090937B008F7D80937C0080917A0019
:102B8000806480937A000895E091F803F091F9034E
:102B90001994982F80ED890F8A3070F08FE9890F92
:102BA0008A3118F489EA890F08958FEB890F8A31E9
:102BB00010F489ECF8CF8FEF0895FC0185E095E1E2
:102BC00061E22191222389F03FE9320F3A3108F482
:102BD0002052689FA001699F500D1124022E000C05
:102BE000330BC90184279527ECCF0895FC01868516
:102BF000978522893389821B930B08959EE0899FD4
:102C0000F0011124E256F04F85919491FC01199442
:102C10000F931F93CF93C62F9EE0899FF00111243D
:102C2000E456F04F059114910E94FE15C8170CF45C
:102C30008C2FF801CF911F910F9119940F931F932F
:102C4000CF93DF939EE0899F80011124F801E8561D
:102C5000F04FC591D4910E940816209741F09E0133
:102C600020FF07C0880F991F36952795F9CFCFEF22
:102C7000DFEFF801E956F04FE491F0E0EE0FFF1FAF
:102C8000E150FB4F20813181C095D095C223D323E1
:102C9000C82BD92BD183C08381E02C173D0709F4C1
:102CA00080E0DF91CF911F910F9108958CE10895FD
:102CB00024E6829FC001112488539F4F0895893BC9
:102CC0002BE0920714F088EB9BE0883C910514F40C
:102CD00088EC90E08659910964E670E00E946638BD
:102CE000CB01089583E1089525E0829FC00111245E
:102CF000059608958536910514F084E690E08530B8
:102D0000910514F485E090E0039765E070E00E947F
:102D10006638CB0108958AE0089525E0829FC001BE
:102D200011240A9608958D33910514F08CE390E0F8
:102D30008A30910514F48AE090E0089765E070E02D
:102D40000E946638CB010895FB016491861B9109AE
:102D5000089560915605862F90E090931C0580930E
:102D60001B0510925605892B59F082E090E0909354
:102D70001E0580931D0550E040E08AE00C942E1360
:102D8000089588E592E090935A05809359058FEF56
:102D90000E949D1361E080E092E00E948D0F8823E5
:102DA00031F063E171E080E090E00C942B13089522
:102DB000CF93DF93D82FC1E0823041F080911B0583
:102DC00090911C058436910508F0C0E04D2F50E02D
:102DD0006C2F87E10E942E13C111D09356058C2FC2
:102DE000DF91CF910895109218051092170550E0C9
:102DF00040E060E086E10C942E1390E0880F991F6C
:102E000023E030E0082E02C0220F331F0A94E2F7BD
:102E100020953095EFEFF4E0408D518D242335233C
:102E200070E002C0660F771F8A95E2F7622B732B62
:102E3000718F608F50E040E086E10C942E130E9469
:102E4000390FCB010895DC0152968D919C915397D7
:102E5000892B61F01C96ED91FC911D9750968D91F8
:102E60009C91E80FF91F808190E008958FEF9FEF0C
:102E700008950F931F93CF93DF93FC010289138969
:102E800030E020E0C62F660FDD0B0217130799F024
:102E900080899189820F931F668577850E945238B9
:102EA000A485B585A80FB91F8C918C171D0649F014
:102EB0002F5F3F4FEACF80E0DF91CF911F910F91BD
:102EC000089581E0F9CFFC01828993890895FC017E
:102ED000228933898685978528173907B9F0408973
:102EE0005189240F351F2817390710F0281B390B7B
:102EF00084859585280F391FD9016C938289938920
:102F00000196938B828B81E090E0089590E080E0C1
:102F10000895CF93DF93823029F490917C079860D5
:102F200090937C07809380071092810780E48093C0
:102F3000820780E18093830780E58093840761E0C6
:102F4000809171070E94060E60E0809171070E94D7
:102F5000BD0D809172078F3F41F061E00E94060E27
:102F600060E0809172070E94BD0D61E0809173075F
:102F70000E94060E60E0809173070E94BD0D809153
:102F80007C07C4E0D0E084FF02C0D0E0C0E0CC5AAF
:102F9000D84F61E088A10E94060E60E088A10E94DF
:102FA000BD0D2196CE0184559740089794F3CFB775
:102FB000F89410925C0710926E0710926D071092B1
:102FC000700710926F0760E08DE597E00E94671729
:102FD00061E08DE597E00E94671762E08DE597E07C
:102FE0000E94671762E08DE597E00E946717809165
:102FF0007C0784FD05C063E08DE597E00E946717BC
:1030000064E08DE597E00E94671760917C0760623D
:103010008DE597E00E94671784E080937D0764E068
:103020008DE597E00E94671760917D0768608DE5E8
:1030300097E00E94671764E08DE597E00E946717AC
:1030400061E08DE597E00E94671782E080937E073C
:1030500064E08DE597E00E94671760917E076460E9
:103060008DE597E00E946717CFBFDF91CF9108955C
:10307000FC014289538941155105C1F020893189EC
:10308000A485B585A20FB31F8C9190E02F5F3F4FB1
:10309000318B208B41505109538B428B468557858C
:1030A0002417350729F4118A108A08958FEF9FEFAE
:1030B00008950F931F93CF93DF930FB7F894FC01FC
:1030C0002789308D438D548D241B350B22303105DB
:1030D0009CF0162FEC01299665E0CE010E9467173F
:1030E000612FCE010E94671781E090E00FBFDF9152
:1030F000CF911F910F91089590E080E0F7CFFB01F1
:1031000090819F5F9083682F84E597E00C94591815
:1031100090E080E00895E8E0F1E080818F7D808399
:1031200080818F7D808308958F929F92AF92BF920E
:10313000CF92DF92EF92FF920F931F93CF93DF9383
:10314000EC010E94140FAFB6F8942885222379F081
:10315000CC80DD80EE80FF80C61AD70AE80AF90A23
:103160001C141D041E041F040CF48CC018868B8DC7
:103170009C8DCC24CA94DC2C7601892B09F482C066
:103180006E0129E0C20ED11CC6010E9438188C01C4
:10319000F82E8CEF800F823020F4C6010E94381880
:1031A000B82EAFBE1127043011055CF401301105B3
:1031B0000CF09FC0012B09F475C0C12CD12C7601F5
:1031C00079C006301105CCF761E084E0F81201C047
:1031D00060E08D8D0E94BD0D2B2D2071822E8B2DD8
:1031E0008072982E2B2D2074A22E8B2D8078C82EC5
:1031F0002B2D2170D22E8B2D8270E82E0B2D04707A
:103200001B2D187088A584FFA6C0622F88A10E947C
:10321000BD0D6E2D89A10E94BD0D602F8AA10E9457
:10322000BD0D612F8BA10E94BD0D682D8CA10E9448
:10323000BD0D692D8DA10E94BD0D6A2D8EA10E942C
:10324000BD0D6C2D8FA10E94BD0D61E08F8D0E9480
:10325000BD0D60E08F8D0E94BD0D25E0F21609F4D2
:10326000A0C08B2D8C7F41F450EFC52E55E0D52E9C
:10327000E12CF12CB11066C035E2C32ED12CE12C2B
:10328000F12C60C0AFBEC701B601DF91CF911F9195
:103290000F91FF90EF90DF90CF90BF90AF909F90F5
:1032A0008F90089581E08887E0EACE2EEFE0DE2E51
:1032B000E12CF12CD701C60123E0B595A795979590
:1032C00087952A95D1F78C0D9D1DAE1DBF1D6C01F4
:1032D0007D012FEFC21AD20AE20AF20A0E94140FED
:1032E0006C0D7D1D8E1D9F1D6C837D838E839F8342
:1032F000CACF60E08D8D0E94BD0D60E08FA10E945D
:10330000BD0D60E08EA10E94BD0D61E08DA10E9407
:10331000BD0D61E083E0F81201C060E08CA10E9465
:10332000BD0D61E08F8D0E94BD0D60E08F8D0E940C
:10333000BD0D21E0F21209C074E0C72E70E1D72E56
:10334000E12CF12C81E08887B5CF64E6C62ED12C24
:10335000E12CF12CF7CF682D8CA10E94BD0D692DB9
:103360008DA10E94BD0D6A2D8EA10E94BD0D6C2DF8
:103370008FA10E94BD0D61E08F8D0E94BD0D60E0A8
:103380008F8D0E94BD0D6D2D8CA10E94BD0D6E2DE7
:103390008DA10E94BD0D602F8EA10E94BD0D612FD9
:1033A00051CF49E2C42ED12CE12CF12CCBCFCF93BD
:1033B000DF93EC01CE010E94941897FFFBCFDF91C1
:1033C000CF9108950F931F93CF93DF931F921F9276
:1033D000CDB7DEB77A836983E82FF0E0EE0FFF1FE9
:1033E000E351FB4E0591149142E050E0B801CE014B
:1033F00001960E943038EBEEF4E145915491E1EFF3
:10340000F4E185919491B8016E5F7F4F0E9430384E
:103410000F900F90DF91CF911F910F910895CF934F
:10342000DF930E94EE0AEC01BC0180E00E94E219E9
:10343000BE0181E0DF91CF910C94E2190C940F1A38
:10344000EF92FF920F931F93CF93DF931F921F92E0
:10345000CDB7DEB78B01E82FF0E0EE0FFF1FE35191
:10346000FB4EE590F49042E050E0B701CE010196AA
:103470000E942038EBEEF4E145915491E1EFF4E144
:1034800085919491B7016E5F7F4F0E9420380E9412
:10349000EE0A9C01F8019183808381E049815A8181
:1034A0004217530709F480E00F900F90DF91CF91FE
:1034B0001F910F91FF90EF9008951F93CF93DF938B
:1034C00000D01F92CDB7DEB7BE016F5F7F4F80E0A7
:1034D0000E94201A182FBE016D5F7F4F81E00E946D
:1034E000201A110F182B123029F1133061F011300E
:1034F000C1F4BE016F5F7F4F80E00E94201A698196
:103500007A8181E01AC0E3EFF4E125913491E1EF93
:10351000F4E18591949170E060E0F90119950E94C1
:103520000F1A812F0F900F900F900F90DF91CF9176
:103530001F9108956B817C8180E00E94E219F1CF98
:10354000CF93DF9300D01F92CDB7DEB780E695E032
:103550009A8389838FE695E09C838B839E01205F0D
:103560003F4F40EA54E1BE016F5F7F4F88E89BE028
:103570000E94920FE981FA818B819C81E817F907FB
:1035800050F03197108280E00F900F900F900F90C5
:10359000DF91CF910895108281E0F6CF9F938F93B2
:1035A00080EA94E19F938F931F928FE08F9380E640
:1035B00095E09F938F930E94A01A8DB79EB70896AF
:1035C0000FB6F8949EBF0FBE8DBF80E695E00895BC
:1035D000CF93DF93CDB7DEB79E012A5F3F4FF9014E
:1035E000419151919F0170E060E085E395E10E9477
:1035F000920FDF91CF9108950F931F93CF93DF9395
:103600001F92CDB7DEB7E98580918007E81710F0EB
:10361000EFEFE80FF0E0EC5AF84F15A50FB7F8946C
:1036200080916B0790916C0720916F073091700724
:10363000821B930B02975CF064E08DE597E00E949B
:103640006717612F60688DE597E00E9467170FBFCD
:1036500019829E01245F3F4F4A855B85BE016F5FE3
:103660007F4F8FE798E10E94920F898191E0980F38
:103670009983803130F460E284E597E00E94591824
:10368000F4CF0F90DF91CF911F910F910895CF92BA
:10369000DF92FF920F931F93CF93DF93EC0118817A
:1036A000113009F45AC024F4112311F18FEF2BC00B
:1036B000123009F477C01330C9F7042FEEEFE40F8E
:1036C000EF30A0F7F0E08827E759F44E8F4F0C94C5
:1036D0009C38111D1B1D221DB21B561B561B561B51
:1036E000561B561B561BB01DB01D0C1D991D771D7A
:1036F000423089F04530D1F65111D8CF8091FF0486
:1037000084FF32C081E0DF91CF911F910F91FF9034
:10371000DF90CF9008958FEF0E949D1382E190E19A
:103720009F938F931F920E94FC1A84E597E00E945A
:10373000D71983E090E19F938F9381E08F930E944C
:10374000FC1A64E170E080E00E9446130F900F9035
:103750000F900F900F900F90A9CF423039F0453065
:1037600009F0A4CF5111A2CF82E0CDCF82EF9FE02C
:103770009F938F931F920E94FC1A84E597E00E940A
:10378000D71981EF9FE09F938F931F930E94FC1A9C
:1037900064E170E080E00E9446130E946E130E9474
:1037A0001E1AD4CFEEEFE40FE23108F07FCFF0E045
:1037B0008827E252F44E8F4F0C949C38F01B561B16
:1037C000001CCF1C561B561B561B561B0C1CB11C39
:1037D000561B561B0C1D561B561B561B561B061CF8
:1037E00080E00E949D13CE010E941E138091FF0471
:1037F0009091000591FD5ACF80E00E949D1356CF15
:1038000061E070E081E00E94461350CF8091000596
:10381000869581708195F1CF452F562F672F772799
:1038200082EE9EE0453601F108F05DC082E59FE042
:103830004D30D1F008F040C08BE79FE04A30A1F056
:1038400058F483E89FE0413079F08AE89FE0423005
:1038500059F080E99EE008C08BE59FE04B3021F0F5
:1038600084E79FE04C30A9F79F938F931F920E94AB
:10387000FC1A89EE9FE09F938F9381E08F930E94C3
:10388000FC1A0F900F900F900F900F900F90809157
:103890004C0490914D04892B31F067E071E080E099
:1038A00090E00E94FD1110924F0410924E0410926D
:1038B0004D0410924C04FACE85E69FE04031A1F20F
:1038C00048F48DE69FE04E3079F289E49FE04F3076
:1038D00059F2BFCF8FE39FE0413131F28DEE9EE090
:1038E000443611F2B6CF86E09FE0413709F4BCCFF1
:1038F000E0F482E39FE04E3609F4B6CF58F487ED4A
:103900009EE0463609F4B0CF8CEC9EE0473609F4D1
:10391000ABCF9FCF83E29FE04F3609F4A5CF85E17F
:103920009FE0403709F4A0CF94CF86EB9EE0493C5E
:1039300009F49ACF58F488EF9EE0423709F494CF07
:1039400081EC9EE0483C09F48FCF83CF8BEA9EE068
:103950004A3C09F489CF80EA9EE04B3C09F484CFCD
:1039600078CFAB01662777278AED9FE0403740F498
:1039700050E0440F551FFA01E65FFD4F80819181B1
:103980009F938F9381E08F930E94FC1A6AE070E00E
:1039900080E00E9446130F900F900F9087CE511138
:1039A00004C0CE010E941E1381CE513009F07ECE9C
:1039B0008091FF0482FF2DC082EC9FE09F938F9344
:1039C00085ED9FE09F938F931F920E94FC1A809138
:1039D0000A058F93809109058F93809108058F9335
:1039E000809107058F9387EC9FE09F938F9381E0F1
:1039F0008F930E94FC1A65E070E081E00E944613FC
:103A00008DB79EB70C960FB6F8949EBF0FBE8DBFB4
:103A10004DCE8FEB9FE0D2CF83E0533009F473CECD
:103A200045CE8FEF0E949D131A8264E670E080E01D
:103A30000E944613B6CF6B818A810E941E160E9497
:103A40001E1A34CE8A819EE0899F90011124F901CB
:103A5000E956F04FE491F0E0EE0FFF1FE150FB4F0D
:103A600000811181F901E856F04F459154914115BB
:103A7000510549F00423152340FD05C0169507950F
:103A800056954795F9CFF901E656F04FC590D49079
:103A90000E94FE15F82EC801F601199597FF02C085
:103AA00090E080E02F2D30E0281739070CF4C90191
:103AB0008B83EA818EE0E89FF0011124EB56F04FF2
:103AC000859194919F938F9382E99FE09F938F9329
:103AD0001F920E94FC1A60E170E080E090E00E947A
:103AE0002B130F900F900F900F900F90DFCD64E687
:103AF00070E080E00E9446136B818A819EE0899F7E
:103B0000F0011124EF55F04FC591D491209711F495
:103B1000CEECDAE10E940816FE0119959F938F936F
:103B20008FE89FE09F938F9381E08F930E94FC1A10
:103B3000D8CF513009F0BACD6B818A810E941E1610
:103B40009A8181E0890F87FD07C083303CF4981784
:103B500009F427CF8A8325CF82E0F9CF80E0F7CF21
:103B6000513009F0A3CD8A819EE0899FF001112494
:103B7000E056F04F14910E94FE159FEF0C3009F0B3
:103B800091E02B81920F97FF05C011110AC0181602
:103B90002CF007C0891724F4112319F080E001C02C
:103BA000892F281709F482CD8B8360E170E080E0D3
:103BB00090E00E942B137ACD0F931F93CF938AE14D
:103BC00096E00E941B0C8C010E94390F20913A0351
:103BD00030913B0321153105A9F0621B730B65364B
:103BE000710580F010923B0310923A03C1E080E02F
:103BF000A0915804B0915904ED91FC911197309720
:103C000019F01994C0E0F3CF40E855E260E070E0AD
:103C10008AE196E00E94B00A6AE28AE196E00E9498
:103C20009B0BE0915804F091590481E19EE191834E
:103C3000808317FF28C08EEFCC2309F45AC08091EF
:103C400039038430B1F48091340390913503890FA6
:103C500060913603860F9091370398130AC0409104
:103C600034035091350354274527542784E10E949B
:103C70002E1310923903E4E3F3E085E0DF011D9297
:103C80008A95E9F71CC00E94390F6115710529F169
:103C900070933B0360933A0361E080E094E00E94FC
:103CA0008D0FE0913903E53040F581E08E0F809370
:103CB0003903F0E0EC5CFC4F0083C111C0CF81E020
:103CC000E0915804F091590420E63EE131832083CD
:103CD000882309F4A6CF8FEF0CC08FEF9FEF90934E
:103CE0003B0380933A03D8CF84E79EE18D939C9366
:103CF00080E0CF911F910F910895CC2301F3B9CFAC
:103D0000FB0101900020E9F73197AF01461B570BEB
:103D1000DC01ED91FC910280F381E02D19948F92EA
:103D20009F92AF92BF92EF92FF920F931F93CF9308
:103D3000DF93CDB7DEB7A1970FB6F894DEBF0FBE05
:103D4000CDBF7C01FA01CB0119A2223008F42AE090
:103D50008E010F5D1F4F822E912CB12CA12CBF0123
:103D6000A50194010E947A38F901CA016A300CF564
:103D7000605DD8016E938D01232B242B252B79F7C1
:103D800090E080E0109721F0BD01C7010E94801EE5
:103D9000A1960FB6F894DEBF0FBECDBFDF91CF91D5
:103DA0001F910F91FF90EF90BF90AF909F908F90D9
:103DB0000895695CDECFCF92DF92EF92FF920F936E
:103DC0001F93CF93DF936B01770FEE08FF08F7FE89
:103DD0001BC0EC016DE20E949B0B8C014427552710
:103DE000BA014C195D096E097F092AE0CE010E94D3
:103DF0008F1E800F911FDF91CF911F910F91FF9028
:103E0000EF90DF90CF9008952AE0B701A601DF91EF
:103E1000CF911F910F91FF90EF90DF90CF900C9476
:103E20008F1ECF92DF92EF92FF921F93CF93DF937B
:103E3000E82FEF73E93008F0A5C0EB01182FF0E090
:103E40008827EA5DF04E8F4F0C949C382F1F3E1F41
:103E5000541F681F761F9F1FA91FB01FB71F62E363
:103E600070E18091CC039091CD03DF91CF911F91B0
:103E7000FF90EF90DF90CF900C94A20B8091CC0339
:103E80009091CD030E94DB1E17FD7CC060E2809103
:103E9000CC039091CD03DF91CF911F91FF90EF90D4
:103EA000DF90CF900C949B0B16FD07C06BE28091C6
:103EB000CC039091CD030E949B0BAE0170E060E0BB
:103EC0002AE08091CC039091CD030E948F1EDCCF1D
:103ED00016FD07C06BE28091CC039091CD030E9448
:103EE0009B0B488159816A817B81EACF16FD07C00F
:103EF00064E28091CC039091CD030E949B0B93E0F0
:103F0000C92ED12C2FE0E22EF12CEC16FD0638F054
:103F100060E38091CC039091CD030E949B0B84E0E1
:103F2000EE0CFF1C8A95E1F78FE0E82A81E0C81AC1
:103F3000D10859F7AE0170E060E020E1C2CFCD2B8F
:103F400009F4A2CF8091CC039091CD030E94801EF2
:103F50009BCF8091CC039091CD030E94A20B94CF74
:103F60008091CC039091CD030E949B0B8DCF60314B
:103F7000710500F760E38091CC039091CD030E941E
:103F80009B0BD8CFDF91CF911F91FF90EF90DF90E7
:103F9000CF9008959FB790937C04F894E82FF0E0B9
:103FA000DF01AA0FBB1FA150BB4F6D917C91809187
:103FB0007C048FBFE159FD4E84910C94111F8091B8
:103FC000FA0380FD05C06FE270E186E00C94111FDA
:103FD0000895CF93DF93EC0160911B0570911C0550
:103FE00080911D0590911E05029751F0672BD1F02D
:103FF00050E040E061E870E089E090E00E947030BD
:10400000D0931E05C0931D05AE018BE00E942E13B8
:1040100010921C0510921B05CD2B21F4DF91CF913E
:104020000C94C116DF91CF91089590E0FC01EE0F42
:10403000FF1FE95FFA4F208131812F3F4FE734079F
:10404000A1F0880F991F880F991FE62FF0E0EE0F5F
:10405000FF1FE80FF91FE35CFA4F318320830E94B2
:104060001E1A90E080E00C94E91F84E690E0FBCFFC
:104070008091FF049091000591FD06C081E090E0E1
:104080000E94E91F81E0089580E00895CF930E9487
:104090003820C82F81111FC080915B0590915C056D
:1040A000892B81F482E390E090935C0580935B051B
:1040B00081E080935D0587E090E00E94E91F8C2FEE
:1040C000CF91089580915D058F5F80935D0583306A
:1040D00090F3C1E0F4CFC0E0F2CF0F931F93CF93E2
:1040E000DF93D091650310926503DD23F1F0809199
:1040F000FF049091000590FF18C08091250584FD74
:1041000008C0409107055091080560E082E10E94D7
:104110002E138091250585FD08C040910905509119
:104120000A0561E082E10E942E13C0E0A0915804CC
:10413000B0915904ED91FC911197309709F4EDC0BD
:1041400019948D30910509F41AC108F415C18E3007
:10415000910509F416C163E00F9709F001C182E0EF
:10416000D4C08F36910509F4F8C120F58836910541
:1041700050F48436910508F011C263E0419709F0CC
:10418000EFC083E0C2C08E36910509F0E9C00E94FD
:104190004620882341F00E946E130E941E1A90E070
:1041A00080E00E94E91FE0915804F091590483EDEA
:1041B00090E287C08237910509F4E5C198F4803711
:1041C000910509F4D5C18137910509F0C9C060E0B6
:1041D00081E00E941520E0915804F09159048BEE83
:1041E00090E26FC0885C9109049708F0B9C00E9402
:1041F0003820811192C00E94F31660E080E094E0C4
:104200000E948D0FE0911B05E85CE09333038091E1
:10421000250584FD0CC094E0E99FD0011124A35D25
:10422000BA4F2D913C912F3F3F4709F4F7C185FDCF
:104230000CC024E0E29FF0011124E35DFA4F82817B
:1042400093818F3F9F4709F4E9C161E080E091E0ED
:104250000E948D0F10923203C0913203C23008F0D9
:10426000B4C2E091330384E0E89FF00111248C2F65
:1042700090E0880F991FE80FF91FE35DFA4F408126
:1042800051816C2F85E10E942E1380E190E002C0E5
:10429000880F991FCA95E2F72091250530912605D0
:1042A00082239323892B09F4BEC1809132038F5F4F
:1042B00080933203D1CFE0915804F09159048BE5FB
:1042C00091E291838083CC2341F18FEFDF91CF91F5
:1042D0001F910F91089590E080E00E94E91FE09106
:1042E0005804F09159048FE691E2EBCF0E94C11679
:1042F00090E080E00E94E91FE0915804F091590499
:104300008CE791E2DECF63E080E00E94FD160E9420
:1043100038208823D1F10E94F31680911B059091DB
:104320001C05892B11F40E94A916C1E080911B0580
:1043300090911C058031910531F108F012CF8B303E
:10434000910509F308F0FDCE8130910579F208F46A
:10435000B2CF8230910509F4BECF61E00A97A1F295
:1043600083E090E00E94E91FC1E0E0915804F091E1
:10437000590485EB91E2A5CF61E081E0C6CF63E00F
:10438000FCCF61E0ECCE61E0FCCE009158041091CE
:1043900059040E941F17F801938382838091FF04C0
:1043A00082FD18C00E941F17E0915804F091590433
:1043B00022813381821B930B2091210530912205AC
:1043C0002817390758F0809156058230C1F40E94B1
:1043D000A91604C084E090E00E94E91F20915605D0
:1043E00080911B0590911C052817190609F055C0EE
:1043F00090E080E00E94E91F0E94A91688CF80917A
:104400001705909118059C013327AC01437055277F
:10441000452B09F06CC0AC014C705527452B09F0B9
:1044200068C0AC0140735527452B09F064C0807CFF
:104430009927892B91F183E0082E000C990BFC0140
:10444000EE0FFF1FEE0FFF1FE35CFA4FAC01440FAE
:10445000551F042E02C0359527950A94E2F7237064
:10446000213009F04AC0228133812F3FFFE73F0707
:1044700009F45AC0FA01E95FFA4F80912B05909137
:104480002C05281B390B80819181281739070CF0E6
:104490004BC088E090E00E94E91F0E94F316009153
:1044A0005804109159040E941F17F80193838283C6
:1044B000009158041091590488E592E2F801918323
:1044C00080830E941F17F80122813381821B930B86
:1044D000893C9105A0F190E080E00E94E91FC1E0D5
:1044E000E0915804F091590480E792E2EACE80E02E
:1044F000A3CF81E0A1CF82E09FCF208131812F3FE8
:104500004FE7340789F0880F991FFC01E95FFA4FE4
:1045100080912B0590912C05280F391F8081918166
:10452000821793070CF4B5CFE0915804F091590429
:1045300084E992E291838083C1E0D11102C08EEFC1
:10454000C5CEE0915804F091590481EA92E291833A
:104550008083CC2309F422CFB8CE60E080E00E94B3
:104560001520E0915804F091590481EB92E2A9CE14
:1045700061E080E00E941520E0915804F091590418
:104580008CEB92E29ECE61E081E00E941520E091EA
:104590005804F091590487EC92E293CE0E94462091
:1045A0008823A9F0C0911B05C456C09333030E9411
:1045B000AF1487FD13C0082E000C990B8C599F4F28
:1045C0000E94E91F90E080E00E94E91FC1E0E091B5
:1045D0005804F091590487EE92E273CE809125053C
:1045E000209107053091080584FF02C02FEF3FE7B7
:1045F00044E0C49FF0011124E35DFA4F318320832E
:1046000085FD09C08091090590910A0593838283F5
:104610000E941E1AD7CF8FEF9FE7F8CF85E090E07A
:104620000E94E91F7ACE20911F05309120054AE0B3
:10463000429FC001439F900D112490935805809391
:1046400057050E94AF1487FD08C0082E000C990B77
:104650008C599F4F0E94E91F0FC08091FF049091D9
:10466000000582FF03C084E090E0F4CF209156055E
:104670002230C1F50E94A916809117059091180566
:104680008F709927892B09F410CE0E94F3160091A0
:104690005804109159040E941F17F80193838283D4
:1046A000E0915804F091590480E593E2918380836E
:1046B000DD2309F444CFC1E000915804109159045E
:1046C0008CE593E2F80191838083C111FECD0E94B5
:1046D0001F17F80122813381821B930B893C9105BE
:1046E000F8F2E3CD2091570530915805232B19F4AA
:1046F00086E090E0AFCF92FF03C089E090E0AACFC0
:10470000E0915804F091590480E893E2918380830A
:10471000DD2309F414CF80913203E091330394E058
:10472000E99FF0011124482F50E09A01220F331F16
:10473000E20FF31FE35DFA4FD901A95FBA4F208161
:1047400031816D917C91261B370B60912B05709107
:104750002C05EE27FF27E61BF70B9FEF2E173F07D1
:104760002CF091E0621773070CF090E02091170590
:10477000309118053327440F551F02C035952795F2
:104780004A95E2F72370213081F4913009F074CF1B
:10479000C1E0E0915804F091590489EC93E29183CF
:1047A0008083CC2309F44DCF90CD233021F49F3F5B
:1047B00009F062CFEDCF61E0913021F09F3F09F029
:1047C0005BCF63E00E94FD16E3CF809117059091C7
:1047D00018058F709927892B89F460E080E091E0BB
:1047E0000E948D0F90E080E00E94E91FC1E0E091FF
:1047F0005804F091590487EF93E263CD0E94F316B9
:1048000000915804109159040E941F17F8019383D6
:104810008283009158041091590489E094E2F801D0
:10482000918380830E941F17F80122813381821BAC
:10483000930B893C910588F682CE8DE194E28D93AD
:104840009C9380E043CD0F931F93CF93DF938C0114
:10485000FC018489958998012C5E3F4F281B390BF8
:10486000241718F431E0368B422FC42FD0E0AE016C
:104870000E94D839F80144895589C40FD51FD58BBA
:10488000C48BDF91CF911F910F910895FF920F93E9
:104890001F93CF93DF931F921F92CDB7DEB78C018A
:1048A000F62E8091960390919703892B71F01092C8
:1048B00097031092960360E080E00E940D11E09152
:1048C0009203F091930389E0199588E993E090931E
:1048D000AD038093AC031092AE034F2DB8010E943C
:1048E00023246091AC037091AD036859734088E94B
:1048F00093E00E94F9109A83898342E0BE016F5FC2
:104900007F4F88E993E00E94232480919603909141
:104910009703892B69F080910801806180930801D9
:104920000E942411809108018F7E80930801EDCFB1
:104930006091AC037091AD0368597340E0918B03B3
:10494000F0918C0388E993E019950E94390F611565
:10495000710581F0709397036093960361E080E0A6
:104960000E940D110F900F90DF91CF911F910F9129
:10497000FF9008958FEF9FEF909397038093960396
:10498000EDCFEF92FF920F931F93CF93DF9300D061
:1049900000D01F921F92CDB7DEB7A0915804B091FE
:1049A0005904ED91FC911197309709F4B6C0199410
:1049B00060917B0370917C036756734087E693E0B8
:1049C0000E944624009158041091590482EE94E20A
:1049D000F801918380830E941F17F801228133819F
:1049E000821B930B0D9708F4E4C0809108018F7728
:1049F000809308011092660310916603123008F04C
:104A000065C00E948B18E0905804F09059040E94F1
:104A10001F17F7019383828310927D0388E693E04A
:104A200090937C0380937B031F5F1093670363E085
:104A300087E693E00E94151180E094E69A838983CB
:104A400042E0BE016F5F7F4F87E693E00E94232420
:104A500080E093E09C838B8342E0BE016D5F7F4FDB
:104A600087E693E00E942324E0915804F0915904D2
:104A700084E395E2918380838091960390919703DC
:104A8000892B09F096C060917B0370917C03675677
:104A9000734087E693E00E944624009158041091E9
:104AA00059048DE495E2F801918380830E941F17D9
:104AB000F80122813381821B930B0D9708F479C092
:104AC000809166038F5F8093660396CF0E94AF1438
:104AD0008095682F661F6627661F82E090E00E941F
:104AE0008D0F2091640361E080912305909124054E
:104AF0002817190609F008F460E084E090E00E94AD
:104B00008D0F81E0809365038091190590911A05BE
:104B1000019690931A058093190580910801806889
:104B2000809308010E948B18009158041091590439
:104B30000E941F17F8019383828310927D0388E6F9
:104B400093E090937C0380937B0380E180936703E1
:104B500066E087E693E00E94151180E094E69E836C
:104B60008D8342E0BE016B5F7F4F87E693E00E943A
:104B70002324809117059091180598278927982755
:104B800098878F8342E0BE01695F7F4F87E693E09D
:104B90000E942324E0915804F09159048AEC95E294
:104BA000918380838091960390919703892B09F4D8
:104BB000FFCE8EEF28960FB6F894DEBF0FBECDBFA6
:104BC000DF91CF911F910F91FF90EF90089587EEA5
:104BD00095E28D939C9380E0EDCF7F928F929F9290
:104BE000AF92BF92CF92DF92EF92FF920F931F93FB
:104BF000CF93DF93CDB7DEB768970FB6F894DEBFDB
:104C00000FBECDBF082F8091C3039091C4038F5A6C
:104C10009340182F99249394853110F014E1912C2E
:104C2000E12EF12CCE0101966C01A7016FEA73E031
:104C30000E94D8398FEA93E09093C4038093C30312
:104C40001092C5038091250580FF62C0A02EB12C73
:104C500081E090E0002E02C0880F991F0A94E2F7CD
:104C6000209127053091280582239323892B09F46D
:104C70004FC070908F038090980371100AC080918C
:104C8000290590912A05009721F08816190609F048
:104C90003FC069E370E186E00E94111F0E94390F56
:104CA0006D8B7E8B8F8B988FBE016B5E7F4F83E405
:104CB0000E94111F71100FC068E270E087E80E9427
:104CC000111F682D70E081E80E94111F69E270E0F9
:104CD00087E00E94111FB50181E00E94111F56015B
:104CE0008A2D8C19811740F4F50161915F0170E004
:104CF00088E80E94111FF4CF911005C064E370E1B1
:104D000086E00E94111F70E060E080E00E94111FA9
:104D10008091080188608093080180919803EFEFEB
:104D2000E80F083041F148F4043060F4E43008F052
:104D300078C062E070E08B5F28C0093009F478C069
:104D40000C30A0F380910801877F8093080168965A
:104D50000FB6F894DEBF0FBECDBFDF91CF911F918C
:104D60000F91FF90EF90DF90CF90BF90AF909F900A
:104D70008F907F900895E430E8F515E0180F8A8150
:104D8000833059F062E070E0812F0E94CF1480914F
:104D90000801806280930801D5CF80919A03909199
:104DA0009B039827892798272B8120FDEBCF422F43
:104DB00050E04B5F5F4FE416F50621F7243010F307
:104DC00084369105F9F68C819D819827892798274B
:104DD000F0E0EE0FFF1FE95FFA4F918380836E8151
:104DE0007F81762767277627812F0E94CF1488231B
:104DF00049F2A8CF803109F0A5CF1830A9F48A81F3
:104E0000863091F48B819C81982789279827843656
:104E1000910551F4109264039093100580930F054F
:104E200091CF803109F08ECF62E070E088E005C05C
:104E3000E43030F470E060E08B5F0E94CF1482CFEA
:104E4000803109F07FCF70E060E0F0CF682F880FED
:104E5000770B80EE93E00E94C737EF92FF920F939B
:104E60001F93CF93DF938C017B01FC011182108291
:104E7000EA0189918823D9F00E94C915282F30E0D2
:104E80002E153F05E4F4F80140815181E49EC001F4
:104E9000E59E900DF49E900D1124820F931F918337
:104EA00080838417950728F781E00E94262781E0F8
:104EB000DF91CF911F910F91FF90EF90089580E0C7
:104EC000F7CFE091DE03F091DF0383E0EE3DF807DA
:104ED00018F082E00E942627CF0102969093DF030C
:104EE0008093DE03808191810895AF92BF92CF922B
:104EF000DF92EF92FF920F931F93CF93DF93CDB783
:104F0000DEB764970FB6F894DEBF0FBECDBF0E9428
:104F1000DD1589322AE8920709F4D8C108F0C6C025
:104F20008C3858E6950709F4A0C208F051C08C3AB5
:104F3000BCE39B0709F4BCC2F8F48F36F1E19F078C
:104F400009F42AC230F48231904109F41DC380E093
:104F500035C2863A5DE1950709F45CC289399F4202
:104F6000B1F70E9461277C010E946127182F0E94DF
:104F70006127A701612FAFC1893EBFE49B0709F4F8
:104F8000CFC290F48C3BFFE39F0709F4C4C1863D78
:104F90009844E9F60E946127182F0E946127682F24
:104FA000812F0E94060E7FC1873040E5940709F4E7
:104FB000D7C28938984659F660910705709108055F
:104FC00081E00E94111F6091090570910A0544C19A
:104FD0008A3FA4E79A0709F402C278F58239E0E72C
:104FE0009E0709F4BCC240F48E38984609F0AFCF52
:104FF0000E94390F82E050C18B3842E7940709F4D0
:1050000060C1873C944709F0A2CF0E946127843099
:1050100008F054C199278C01000F111F0E946127CD
:10502000000F111F035D1A4FD8018D939C930E94AE
:105030006127F8019383828336C1853EA9E79A07E9
:1050400009F4D2C110F5893FE6E79E0709F4DAC1F9
:105050000FEF14E0FFE0EF2EF5E0FF2E88399947BF
:1050600009F075CFD8019E966D917C9181E00E94E8
:10507000111FF80160A971A981E00E94111F0C5F46
:105080001F4FE016F10671F70EC183302AE7920731
:1050900009F4F6C010E0833D954809F058CF812F00
:1050A0000E94CA1F1F5F1731D1F7FDC08F3050ED2E
:1050B000950709F4F4C008F074C0883EB5EB9B076F
:1050C00009F475C108F04AC0873CF8EA9F0709F463
:1050D00058C238F4823C984A09F039CF0E945D1AD0
:1050E000E2C0883F58EA950709F4A6C1833E954B74
:1050F00009F02DCF0E9461278C0180912E039091A1
:105100002F03A0913003B09131036C017D0123E0A6
:10511000F594E794D794C7942A95D1F7BC01CD01B3
:105120006C197D098E099F09012E000C220B330B8F
:10513000060F171F281F391F00932E0310932F03EC
:105140002093300330933103C901B80133E09595C2
:105150008795779567953A95D1F77EC08E37B8EBEE
:105160009B0709F428C180F4833FF5EB9F0709F4FE
:1051700087C140E067E070E08D3F954B09F0E7CED6
:1051800083E10E94720F8FC0883B4CEB940709F4B7
:10519000ADC06EE673E18B33934C09F0D8CE86E058
:1051A0007BC08838ACED9A0709F47FC068F58F376B
:1051B000E1ED9E0709F492C030F48336904D09F07A
:1051C000C6CEF89470C0873B48ED940709F448C1F7
:1051D0008D309B4D09F0BBCE0E946127823008F0D4
:1051E0006DC08C011127000F111F000F111F035CF0
:1051F0001A4F0E946127D8018D939C930E946127CA
:10520000F801918380834FC08039A6EF9A0709F493
:10521000EEC020F58733EDED9E0709F44BC0823BCD
:105220009E4D09F094CE60913D0570913E0581E060
:105230000E94111F60913F057091400581E00E941E
:10524000111F609141057091420581E00E94111F7C
:10525000609143057091440581E01EC08B3D2CEFA9
:10526000920709F487C18F3A9E4F09F070CE0E94D1
:105270006127AC0166E970E081E090E00E94703047
:10528000609145057091460584E00E94111F609170
:1052900047057091480584E00E94111F04C00E94D8
:1052A00061270E94D81681E089C00E9461270E9470
:1052B0004815F9CF60913C0370E0CECF87E00E94A3
:1052C00026270E9461270E949D13EDCF0E9461272F
:1052D00050E040E060E00E942E13E5CFE5E4F5E009
:1052E00083E0DF011D928A95E9F7DDCF11E061E0EF
:1052F000812F0E94E5111F5F1831C9F760E085E03A
:105300000E94E51160E086E00E94E51160E087E020
:105310000E94E511C8CF3CE4E32E34E1F32E10E007
:1053200000E0AA24A394B12C5DE4C52E5EE0D52E46
:10533000F70125913491E02FE695E695E695F0E0AA
:10534000EB5BFA4F802F8770A50102C0440F551FF9
:105350008A95E2F7CA014081482381E090E011F488
:1053600090E080E0C0969F938F933F932F931F937D
:105370000F93DF92CF920E94E81AA8950F5F1F4FFC
:1053800052E0E50EF11C0FB6F894DEBF0FBECDBFA4
:105390000831110569F687CF0E946127182F0E94F6
:1053A000612761E0892B09F460E0812FB1CF41E0F2
:1053B00061E070E0E5CE81E08093320464960FB640
:1053C000F894DEBF0FBECDBFDF91CF911F910F913B
:1053D000FF90EF90DF90CF90BF90AF9008950E9424
:1053E000612780938F035FCF60918F0365CF0E9409
:1053F0006127E0918B03F0918C03DC016C910196A5
:10540000199551CF0E946127FC01608101960E948D
:10541000462449CF0E946127082F0E946127182F38
:105420000E94612796E09A8309831B821C838D83E7
:105430001E8266E0CE01EACF0E946127898386E062
:105440008A830E9461279827892798279C838B83CA
:105450000E9461279827892798279E838D83E9CF0B
:105460000E946127898383E0EBCF0E946127873107
:1054700018F40E94CA1F17CF6FE370E087E00CCFCB
:105480000E9461278C010E946127073108F00BCF31
:105490002FB720937C04F894F801FF27EE0FFF1F2D
:1054A000E150FB4F9183808380917C048FBFFBCEC2
:1054B00083EAC82E89E0D82E91EDE92E99E0F92EE5
:1054C00010E000E070E060E080E00E94111FB80191
:1054D00081E80E94111F6AE370E087E00E94111FBB
:1054E000802F0E94CA1FF6016591749186E00E9488
:1054F000111FF7016591749186E00E94111F81E0F0
:105500000E9488150F5F1F4FF2E0CF0ED11C22E0E2
:10551000E20EF11C07311105A9F66FEF79E03FCEDD
:10552000E091DE03F091DF0343E0EE3DF40710F07D
:1055300082E0C5CE41E080819181181619060CF0F9
:1055400040E062E070E083E10E94720F0E946127F8
:1055500041E002970CF440E064E070E011CEFFCF30
:105560000E946127892B09F09ECE50E040E067E958
:1055700070E082CE70E060E090E080E00E948113F5
:1055800092CE0E941E1A8FCE0E946127182F0E9471
:105590006127682F812F0E94BD0D85CECF93DF93A9
:1055A0000E94DD158E3D23E7920729F170F48F38B4
:1055B00025E6920751F1893C26E6920759F18C3293
:1055C0009C4559F40E9461271CC08C392FE9920731
:1055D00089F128F4873B9049A1F180E013C088301D
:1055E00025EB9207E1F08B38954BB9F70E946127C4
:1055F000BC0181E004C00E946127BC0182E00E94DE
:10560000111F81E0DF91CF9108950E946127BC01B5
:1056100084E0F5CF0E946127BC0185E0F0CF809146
:10562000DE039091DF036EED73E0681B790B7595D7
:105630006795DFCF8EED93E09093DF038093DE03D9
:10564000E0CFC091DE03D091DF0383E0CE3DD807E9
:1056500018F082E00E942627888199810E94DD153A
:1056600099838883CECFE091DE03F091DF0323E0BE
:10567000E03DF20718F483E00E9426273297F0936A
:10568000DF03E093DE03918380830895DF92EF923E
:10569000FF920F931F93CF93DF93FC01208126325B
:1056A00049F080E0DF91CF911F910F91FF90EF9033
:1056B000DF900895EC017C018C010F5F1F4FF70113
:1056C00081818823C1F00E94C915D82EFFE0F81708
:1056D00040F3F70182810E94C915F2E0EF0EF11C40
:1056E0008031F8F690E1D99E90011124822BF801C7
:1056F00081938F01E4CF0C1B1D0B01500883CE0159
:105700000E94332B81E0CECF6F927F928F929F9237
:10571000AF92BF92CF92DF92EF92FF920F931F93BF
:10572000CF93DF93FC012081223209F05DC07C0120
:105730008C010F5F1F4FEC018AE0782E9DE0692EEF
:10574000F80180818823F1F04801FFEF8F1A9F0A4A
:105750005E019FEFA91AB90A8C3539F08883480198
:1057600084010F5F1F4FE501EBCFF801D180FEE60A
:10577000DF16E1F082E7D816D9F0D1101BC080E225
:105780008883E5011882C7010E94332B81E0DF91F5
:10579000CF911F910F91FF90EF90DF90CF90BF902E
:1057A000AF909F908F907F906F9008957882D8CF20
:1057B0006882D6CF8D2D0E94C915C82EF80182812E
:1057C0000E94C915FFE0FC1568F0803158F490E1A3
:1057D000C99E600111248C2988834801E2E08E0E65
:1057E000911CBECFD882BCCF80E0D1CF1F93CF9386
:1057F000DF931F921F92CDB7DEB7FC0120812432C8
:1058000019F42181211102C010E010C0AC014F5FDA
:105810005F4F60E170E0CE0101960E942D27182FA6
:10582000882391F389819A810E94332B812F0F90D5
:105830000F90DF91CF911F9108950F931F93CF93F6
:10584000DF931F921F92CDB7DEB7FC0110811D328E
:1058500011F01B3271F40196FC01208121110BC063
:1058600000E0802F0F900F90DF91CF911F910F914B
:10587000089510E2F1CFAC016AE070E0CE0101962C
:105880000E942D27082F882359F389819A8110328D
:1058900039F01D3251F089819A810E94332BE1CF7A
:1058A00097FFF9CF81E00E9426278130F0E89F071B
:1058B000C8F79195819591099A838983ECCF0F93CD
:1058C0001F93CF93DF931F921F92CDB7DEB79A83BA
:1058D000898380EE93E00E94A537811111C001E217
:1058E00010E1F801259134912115310581F089816C
:1058F0009A81F90119950E5F1F4F882391F380E07B
:105900000F900F90DF91CF911F910F91089584E038
:10591000F7CFCF92DF92EF92FF920F931F93FC018C
:105920008081811107C06A01F1E14F1759F084E1CC
:10593000481731F18FEF1F910F91FF90EF90DF909B
:10594000CF90089561157F4EA9F761E080E094E063
:105950000E948D0F04EA16E122E030E047E150E0BA
:1059600062E67EE08D2D90E00E946937009711F38A
:105970000196FC0184918823E9F20E94D816DACFBF
:1059800061157F4EB9F6E6CF1F920F920FB60F92B8
:1059900011240BB60F922F933F934F935F936F9306
:1059A0007F938F939F93AF93BF93EF93FF938DE775
:1059B00095E00E94750CFF91EF91BF91AF919F917F
:1059C0008F917F916F915F914F913F912F910F90A8
:1059D0000BBE0F900FBE0F901F9018951F920F9245
:1059E0000FB60F9211240BB60F922F933F934F9344
:1059F0005F936F937F938F939F93AF93BF93EF9337
:105A0000FF938DE795E00E94F30BFF91EF91BF911B
:105A1000AF919F918F917F916F915F914F913F9146
:105A20002F910F900BBE0F900FBE0F901F901895E7
:105A30001F920F920FB60F9211240BB60F922F9355
:105A40003F934F935F936F937F938F939F93AF9306
:105A5000BF93EF93FF938AE196E00E94750CFF914C
:105A6000EF91BF91AF919F918F917F916F915F91D6
:105A70004F913F912F910F900BBE0F900FBE0F9043
:105A80001F9018951F920F920FB60F9211240BB60C
:105A90000F922F933F934F935F936F937F938F93C7
:105AA0009F93AF93BF93EF93FF938AE196E00E9499
:105AB000F30BFF91EF91BF91AF919F918F917F91E8
:105AC0006F915F914F913F912F910F900BBE0F906F
:105AD0000FBE0F901F9018951F920F920FB60F9246
